{
  "contractName": "myContract",
  "abi": [
    {
      "inputs": [
        {
          "internalType": "address payable",
          "name": "_wallet",
          "type": "address"
        }
      ],
      "stateMutability": "nonpayable",
      "type": "constructor"
    },
    {
      "stateMutability": "payable",
      "type": "fallback"
    },
    {
      "inputs": [
        {
          "internalType": "address",
          "name": "",
          "type": "address"
        }
      ],
      "name": "balances",
      "outputs": [
        {
          "internalType": "uint256",
          "name": "",
          "type": "uint256"
        }
      ],
      "stateMutability": "view",
      "type": "function"
    },
    {
      "inputs": [],
      "name": "buyToken",
      "outputs": [],
      "stateMutability": "payable",
      "type": "function"
    }
  ],
  "bytecode": "0x608060405234801561001057600080fd5b50604051610426380380610426833981810160405281019061003291906100dc565b80600160006101000a81548173ffffffffffffffffffffffffffffffffffffffff021916908373ffffffffffffffffffffffffffffffffffffffff16021790555050610109565b600080fd5b600073ffffffffffffffffffffffffffffffffffffffff82169050919050565b60006100a98261007e565b9050919050565b6100b98161009e565b81146100c457600080fd5b50565b6000815190506100d6816100b0565b92915050565b6000602082840312156100f2576100f1610079565b5b6000610100848285016100c7565b91505092915050565b61030e806101186000396000f3fe60806040526004361061002d5760003560e01c806327e235e314610038578063a4821719146100755761002e565b5b61003661007f565b005b34801561004457600080fd5b5061005f600480360381019061005a91906101f2565b610177565b60405161006c9190610238565b60405180910390f35b61007d61007f565b005b60016000803373ffffffffffffffffffffffffffffffffffffffff1673ffffffffffffffffffffffffffffffffffffffff168152602001908152602001600020546100ca9190610282565b6000803373ffffffffffffffffffffffffffffffffffffffff1673ffffffffffffffffffffffffffffffffffffffff16815260200190815260200160002081905550600160009054906101000a900473ffffffffffffffffffffffffffffffffffffffff1673ffffffffffffffffffffffffffffffffffffffff166108fc349081150290604051600060405180830381858888f19350505050158015610174573d6000803e3d6000fd5b50565b60006020528060005260406000206000915090505481565b600080fd5b600073ffffffffffffffffffffffffffffffffffffffff82169050919050565b60006101bf82610194565b9050919050565b6101cf816101b4565b81146101da57600080fd5b50565b6000813590506101ec816101c6565b92915050565b6000602082840312156102085761020761018f565b5b6000610216848285016101dd565b91505092915050565b6000819050919050565b6102328161021f565b82525050565b600060208201905061024d6000830184610229565b92915050565b7f4e487b7100000000000000000000000000000000000000000000000000000000600052601160045260246000fd5b600061028d8261021f565b91506102988361021f565b9250827fffffffffffffffffffffffffffffffffffffffffffffffffffffffffffffffff038211156102cd576102cc610253565b5b82820190509291505056fea2646970667358221220221cf4bd62a34c0410fe4a5d60f4c539fab47ec1ccbc7089594eaa852df63df664736f6c634300080a0033",
  "immutableReferences": {},
  "source": "// SPDX-License-Identifier: MIT\npragma solidity >=0.4.22 <0.9.0;\n\ncontract myContract {\n\n  //track user's balance\n  mapping(address => uint256) public balances;\n\n  //address of the wallet\n  address payable wallet;\n  constructor(address payable _wallet){\n    wallet = _wallet;\n  }\n   //fallback function \n  fallback() external payable {\n\n  buyToken();\n\n  }\n  \n  function buyToken()public payable{\n\n    //buy token: increase user's balance by 1\n\n    balances [msg.sender] = balances [msg.sender] + 1;\n\n    //send ether to the wallet: transfer funds from the contract to the wallet\n    wallet.transfer(msg.value);\n\n  }\n \n}\n",
  "sourcePath": "C:\\Users\\PC\\Desktop\\buyToken\\contracts\\buyToken.sol",
  "compiler": {
    "name": "solc",
    "version": "0.8.10+commit.fc410830.Emscripten.clang"
  },
  "schemaVersion": "3.4.4",
  "updatedAt": "2022-01-07T08:27:21.110Z",
  "devdoc": {
    "kind": "dev",
    "methods": {},
    "version": 1
  },
  "userdoc": {
    "kind": "user",
    "methods": {},
    "version": 1
  }
}